{
  "_format": "hh-sol-artifact-1",
  "contractName": "BuyMeACoffee",
  "sourceName": "contracts/BuyMeACoffee.sol",
  "abi": [
    {
      "inputs": [],
      "stateMutability": "nonpayable",
      "type": "constructor"
    },
    {
      "anonymous": false,
      "inputs": [
        {
          "indexed": true,
          "internalType": "address",
          "name": "from",
          "type": "address"
        },
        {
          "indexed": false,
          "internalType": "uint256",
          "name": "timestamp",
          "type": "uint256"
        },
        {
          "indexed": false,
          "internalType": "string",
          "name": "name",
          "type": "string"
        },
        {
          "indexed": false,
          "internalType": "string",
          "name": "message",
          "type": "string"
        }
      ],
      "name": "NewMemo",
      "type": "event"
    },
    {
      "inputs": [
        {
          "internalType": "string",
          "name": "_name",
          "type": "string"
        },
        {
          "internalType": "string",
          "name": "_message",
          "type": "string"
        }
      ],
      "name": "buyCoffee",
      "outputs": [],
      "stateMutability": "payable",
      "type": "function"
    },
    {
      "inputs": [],
      "name": "buyLargeCoffee",
      "outputs": [],
      "stateMutability": "payable",
      "type": "function"
    },
    {
      "inputs": [],
      "name": "getMemos",
      "outputs": [
        {
          "components": [
            {
              "internalType": "address",
              "name": "from",
              "type": "address"
            },
            {
              "internalType": "uint256",
              "name": "timestamp",
              "type": "uint256"
            },
            {
              "internalType": "string",
              "name": "name",
              "type": "string"
            },
            {
              "internalType": "string",
              "name": "message",
              "type": "string"
            }
          ],
          "internalType": "struct BuyMeACoffee.Memo[]",
          "name": "",
          "type": "tuple[]"
        }
      ],
      "stateMutability": "view",
      "type": "function"
    },
    {
      "inputs": [],
      "name": "owner",
      "outputs": [
        {
          "internalType": "address payable",
          "name": "",
          "type": "address"
        }
      ],
      "stateMutability": "view",
      "type": "function"
    },
    {
      "inputs": [
        {
          "internalType": "address",
          "name": "_newAddress",
          "type": "address"
        }
      ],
      "name": "updateWithdraw",
      "outputs": [],
      "stateMutability": "nonpayable",
      "type": "function"
    },
    {
      "inputs": [],
      "name": "withdrawTips",
      "outputs": [],
      "stateMutability": "nonpayable",
      "type": "function"
    }
  ],
  "bytecode": "0x608060405234801561001057600080fd5b50336000806101000a81548173ffffffffffffffffffffffffffffffffffffffff021916908373ffffffffffffffffffffffffffffffffffffffff160217905550610f97806100606000396000f3fe6080604052600436106100555760003560e01c806319861f2c1461005a578063204206e1146100645780633aaa74b214610080578063865c5172146100975780638da5cb5b146100c2578063c3068154146100ed575b600080fd5b610062610116565b005b61007e6004803603810190610079919061076d565b610161565b005b34801561008c57600080fd5b506100956102db565b005b3480156100a357600080fd5b506100ac61033b565b6040516100b991906109ea565b60405180910390f35b3480156100ce57600080fd5b506100d761051e565b6040516100e49190610a2d565b60405180910390f35b3480156100f957600080fd5b50610114600480360381019061010f9190610a74565b610542565b005b660aa87bee538000341461015f576040517f08c379a000000000000000000000000000000000000000000000000000000000815260040161015690610afe565b60405180910390fd5b565b600034116101a4576040517f08c379a000000000000000000000000000000000000000000000000000000000815260040161019b90610b6a565b60405180910390fd5b600160405180608001604052803373ffffffffffffffffffffffffffffffffffffffff16815260200142815260200184815260200183815250908060018154018082558091505060019003906000526020600020906004020160009091909190915060008201518160000160006101000a81548173ffffffffffffffffffffffffffffffffffffffff021916908373ffffffffffffffffffffffffffffffffffffffff16021790555060208201518160010155604082015181600201908161026c9190610d96565b5060608201518160030190816102829190610d96565b5050503373ffffffffffffffffffffffffffffffffffffffff167fc56140e05f516509ae28110e0f72e17558a7561630dad2647c3ae87d986e365c4284846040516102cf93929190610eb0565b60405180910390a25050565b60008054906101000a900473ffffffffffffffffffffffffffffffffffffffff1673ffffffffffffffffffffffffffffffffffffffff166108fc479081150290604051600060405180830381858888f1935050505061033957600080fd5b565b60606001805480602002602001604051908101604052809291908181526020016000905b8282101561051557838290600052602060002090600402016040518060800160405290816000820160009054906101000a900473ffffffffffffffffffffffffffffffffffffffff1673ffffffffffffffffffffffffffffffffffffffff1673ffffffffffffffffffffffffffffffffffffffff168152602001600182015481526020016002820180546103f290610bb9565b80601f016020809104026020016040519081016040528092919081815260200182805461041e90610bb9565b801561046b5780601f106104405761010080835404028352916020019161046b565b820191906000526020600020905b81548152906001019060200180831161044e57829003601f168201915b5050505050815260200160038201805461048490610bb9565b80601f01602080910402602001604051908101604052809291908181526020018280546104b090610bb9565b80156104fd5780601f106104d2576101008083540402835291602001916104fd565b820191906000526020600020905b8154815290600101906020018083116104e057829003601f168201915b5050505050815250508152602001906001019061035f565b50505050905090565b60008054906101000a900473ffffffffffffffffffffffffffffffffffffffff1681565b60008054906101000a900473ffffffffffffffffffffffffffffffffffffffff1673ffffffffffffffffffffffffffffffffffffffff163373ffffffffffffffffffffffffffffffffffffffff16146105d0576040517f08c379a00000000000000000000000000000000000000000000000000000000081526004016105c790610f41565b60405180910390fd5b806000806101000a81548173ffffffffffffffffffffffffffffffffffffffff021916908373ffffffffffffffffffffffffffffffffffffffff16021790555050565b6000604051905090565b600080fd5b600080fd5b600080fd5b600080fd5b6000601f19601f8301169050919050565b7f4e487b7100000000000000000000000000000000000000000000000000000000600052604160045260246000fd5b61067a82610631565b810181811067ffffffffffffffff8211171561069957610698610642565b5b80604052505050565b60006106ac610613565b90506106b88282610671565b919050565b600067ffffffffffffffff8211156106d8576106d7610642565b5b6106e182610631565b9050602081019050919050565b82818337600083830152505050565b600061071061070b846106bd565b6106a2565b90508281526020810184848401111561072c5761072b61062c565b5b6107378482856106ee565b509392505050565b600082601f83011261075457610753610627565b5b81356107648482602086016106fd565b91505092915050565b600080604083850312156107845761078361061d565b5b600083013567ffffffffffffffff8111156107a2576107a1610622565b5b6107ae8582860161073f565b925050602083013567ffffffffffffffff8111156107cf576107ce610622565b5b6107db8582860161073f565b9150509250929050565b600081519050919050565b600082825260208201905092915050565b6000819050602082019050919050565b600073ffffffffffffffffffffffffffffffffffffffff82169050919050565b600061083c82610811565b9050919050565b61084c81610831565b82525050565b6000819050919050565b61086581610852565b82525050565b600081519050919050565b600082825260208201905092915050565b60005b838110156108a557808201518184015260208101905061088a565b60008484015250505050565b60006108bc8261086b565b6108c68185610876565b93506108d6818560208601610887565b6108df81610631565b840191505092915050565b60006080830160008301516109026000860182610843565b506020830151610915602086018261085c565b506040830151848203604086015261092d82826108b1565b9150506060830151848203606086015261094782826108b1565b9150508091505092915050565b600061096083836108ea565b905092915050565b6000602082019050919050565b6000610980826107e5565b61098a81856107f0565b93508360208202850161099c85610801565b8060005b858110156109d857848403895281516109b98582610954565b94506109c483610968565b925060208a019950506001810190506109a0565b50829750879550505050505092915050565b60006020820190508181036000830152610a048184610975565b905092915050565b6000610a1782610811565b9050919050565b610a2781610a0c565b82525050565b6000602082019050610a426000830184610a1e565b92915050565b610a5181610831565b8114610a5c57600080fd5b50565b600081359050610a6e81610a48565b92915050565b600060208284031215610a8a57610a8961061d565b5b6000610a9884828501610a5f565b91505092915050565b600082825260208201905092915050565b7f6f6e6c7920302e30303320657468657273206172652072657175726965640000600082015250565b6000610ae8601e83610aa1565b9150610af382610ab2565b602082019050919050565b60006020820190508181036000830152610b1781610adb565b9050919050565b7f63616e27742062757920636f6666656520666f72206672656521000000000000600082015250565b6000610b54601a83610aa1565b9150610b5f82610b1e565b602082019050919050565b60006020820190508181036000830152610b8381610b47565b9050919050565b7f4e487b7100000000000000000000000000000000000000000000000000000000600052602260045260246000fd5b60006002820490506001821680610bd157607f821691505b602082108103610be457610be3610b8a565b5b50919050565b60008190508160005260206000209050919050565b60006020601f8301049050919050565b600082821b905092915050565b600060088302610c4c7fffffffffffffffffffffffffffffffffffffffffffffffffffffffffffffffff82610c0f565b610c568683610c0f565b95508019841693508086168417925050509392505050565b6000819050919050565b6000610c93610c8e610c8984610852565b610c6e565b610852565b9050919050565b6000819050919050565b610cad83610c78565b610cc1610cb982610c9a565b848454610c1c565b825550505050565b600090565b610cd6610cc9565b610ce1818484610ca4565b505050565b5b81811015610d0557610cfa600082610cce565b600181019050610ce7565b5050565b601f821115610d4a57610d1b81610bea565b610d2484610bff565b81016020851015610d33578190505b610d47610d3f85610bff565b830182610ce6565b50505b505050565b600082821c905092915050565b6000610d6d60001984600802610d4f565b1980831691505092915050565b6000610d868383610d5c565b9150826002028217905092915050565b610d9f8261086b565b67ffffffffffffffff811115610db857610db7610642565b5b610dc28254610bb9565b610dcd828285610d09565b600060209050601f831160018114610e005760008415610dee578287015190505b610df88582610d7a565b865550610e60565b601f198416610e0e86610bea565b60005b82811015610e3657848901518255600182019150602085019450602081019050610e11565b86831015610e535784890151610e4f601f891682610d5c565b8355505b6001600288020188555050505b505050505050565b610e7181610852565b82525050565b6000610e828261086b565b610e8c8185610aa1565b9350610e9c818560208601610887565b610ea581610631565b840191505092915050565b6000606082019050610ec56000830186610e68565b8181036020830152610ed78185610e77565b90508181036040830152610eeb8184610e77565b9050949350505050565b7f6f6e6c79206f776e65722063616e2063616c6c2074686973206d6574686f6400600082015250565b6000610f2b601f83610aa1565b9150610f3682610ef5565b602082019050919050565b60006020820190508181036000830152610f5a81610f1e565b905091905056fea2646970667358221220d6b248c9a397cc3057557957acd146139dd7e14f440e3347cc5ecb14d747633d64736f6c63430008110033",
  "linkReferences": {},
  "deployedLinkReferences": {}
}