{
  "_format": "hh-sol-artifact-1",
  "contractName": "BuyMeACoffee",
  "sourceName": "contracts/BuyMeACoffee.sol",
  "abi": [
    {
      "inputs": [],
      "stateMutability": "nonpayable",
      "type": "constructor"
    },
    {
      "anonymous": false,
      "inputs": [
        {
          "indexed": true,
          "internalType": "address",
          "name": "from",
          "type": "address"
        },
        {
          "indexed": false,
          "internalType": "uint256",
          "name": "timestamp",
          "type": "uint256"
        },
        {
          "indexed": false,
          "internalType": "string",
          "name": "name",
          "type": "string"
        },
        {
          "indexed": false,
          "internalType": "string",
          "name": "coffeeType",
          "type": "string"
        },
        {
          "indexed": false,
          "internalType": "string",
          "name": "message",
          "type": "string"
        }
      ],
      "name": "NewMemo",
      "type": "event"
    },
    {
      "inputs": [
        {
          "internalType": "string",
          "name": "_name",
          "type": "string"
        },
        {
          "internalType": "string",
          "name": "_message",
          "type": "string"
        },
        {
          "internalType": "string",
          "name": "_coffeeType",
          "type": "string"
        }
      ],
      "name": "buyCoffee",
      "outputs": [],
      "stateMutability": "payable",
      "type": "function"
    },
    {
      "inputs": [
        {
          "internalType": "string",
          "name": "_name",
          "type": "string"
        },
        {
          "internalType": "string",
          "name": "_message",
          "type": "string"
        },
        {
          "internalType": "string",
          "name": "_coffeeType",
          "type": "string"
        }
      ],
      "name": "buyLargeCoffee",
      "outputs": [],
      "stateMutability": "payable",
      "type": "function"
    },
    {
      "inputs": [],
      "name": "getMemos",
      "outputs": [
        {
          "components": [
            {
              "internalType": "address",
              "name": "from",
              "type": "address"
            },
            {
              "internalType": "uint256",
              "name": "timestamp",
              "type": "uint256"
            },
            {
              "internalType": "string",
              "name": "name",
              "type": "string"
            },
            {
              "internalType": "string",
              "name": "coffeeType",
              "type": "string"
            },
            {
              "internalType": "string",
              "name": "message",
              "type": "string"
            }
          ],
          "internalType": "struct BuyMeACoffee.Memo[]",
          "name": "",
          "type": "tuple[]"
        }
      ],
      "stateMutability": "view",
      "type": "function"
    },
    {
      "inputs": [],
      "name": "owner",
      "outputs": [
        {
          "internalType": "address payable",
          "name": "",
          "type": "address"
        }
      ],
      "stateMutability": "view",
      "type": "function"
    },
    {
      "inputs": [
        {
          "internalType": "address",
          "name": "_newAddress",
          "type": "address"
        }
      ],
      "name": "updateWithdraw",
      "outputs": [],
      "stateMutability": "nonpayable",
      "type": "function"
    },
    {
      "inputs": [],
      "name": "withdrawTips",
      "outputs": [],
      "stateMutability": "nonpayable",
      "type": "function"
    }
  ],
  "bytecode": "0x608060405234801561001057600080fd5b50336000806101000a81548173ffffffffffffffffffffffffffffffffffffffff021916908373ffffffffffffffffffffffffffffffffffffffff16021790555061120c806100606000396000f3fe6080604052600436106100555760003560e01c806316a4a89c1461005a5780633aaa74b21461007657806355909eec1461008d578063865c5172146100a95780638da5cb5b146100d4578063c3068154146100ff575b600080fd5b610074600480360381019061006f9190610984565b610128565b005b34801561008257600080fd5b5061008b6102c1565b005b6100a760048036038101906100a29190610984565b610321565b005b3480156100b557600080fd5b506100be6104c0565b6040516100cb9190610c4a565b60405180910390f35b3480156100e057600080fd5b506100e9610735565b6040516100f69190610c8d565b60405180910390f35b34801561010b57600080fd5b5061012660048036038101906101219190610cd4565b610759565b005b6000341161016b576040517f08c379a000000000000000000000000000000000000000000000000000000000815260040161016290610d5e565b60405180910390fd5b60016040518060a001604052803373ffffffffffffffffffffffffffffffffffffffff16815260200142815260200185815260200183815260200184815250908060018154018082558091505060019003906000526020600020906005020160009091909190915060008201518160000160006101000a81548173ffffffffffffffffffffffffffffffffffffffff021916908373ffffffffffffffffffffffffffffffffffffffff1602179055506020820151816001015560408201518160020190816102399190610f8a565b50606082015181600301908161024f9190610f8a565b5060808201518160040190816102659190610f8a565b5050503373ffffffffffffffffffffffffffffffffffffffff167f278e362bfd6af0951b595e6b22ce136796546ae06428ae7bd4eb4921eb991c62428584866040516102b494939291906110a4565b60405180910390a2505050565b60008054906101000a900473ffffffffffffffffffffffffffffffffffffffff1673ffffffffffffffffffffffffffffffffffffffff166108fc479081150290604051600060405180830381858888f1935050505061031f57600080fd5b565b660aa87bee538000341461036a576040517f08c379a00000000000000000000000000000000000000000000000000000000081526004016103619061114a565b60405180910390fd5b60016040518060a001604052803373ffffffffffffffffffffffffffffffffffffffff16815260200142815260200185815260200183815260200184815250908060018154018082558091505060019003906000526020600020906005020160009091909190915060008201518160000160006101000a81548173ffffffffffffffffffffffffffffffffffffffff021916908373ffffffffffffffffffffffffffffffffffffffff1602179055506020820151816001015560408201518160020190816104389190610f8a565b50606082015181600301908161044e9190610f8a565b5060808201518160040190816104649190610f8a565b5050503373ffffffffffffffffffffffffffffffffffffffff167f278e362bfd6af0951b595e6b22ce136796546ae06428ae7bd4eb4921eb991c62428584866040516104b394939291906110a4565b60405180910390a2505050565b60606001805480602002602001604051908101604052809291908181526020016000905b8282101561072c57838290600052602060002090600502016040518060a00160405290816000820160009054906101000a900473ffffffffffffffffffffffffffffffffffffffff1673ffffffffffffffffffffffffffffffffffffffff1673ffffffffffffffffffffffffffffffffffffffff1681526020016001820154815260200160028201805461057790610dad565b80601f01602080910402602001604051908101604052809291908181526020018280546105a390610dad565b80156105f05780601f106105c5576101008083540402835291602001916105f0565b820191906000526020600020905b8154815290600101906020018083116105d357829003601f168201915b5050505050815260200160038201805461060990610dad565b80601f016020809104026020016040519081016040528092919081815260200182805461063590610dad565b80156106825780601f1061065757610100808354040283529160200191610682565b820191906000526020600020905b81548152906001019060200180831161066557829003601f168201915b5050505050815260200160048201805461069b90610dad565b80601f01602080910402602001604051908101604052809291908181526020018280546106c790610dad565b80156107145780601f106106e957610100808354040283529160200191610714565b820191906000526020600020905b8154815290600101906020018083116106f757829003601f168201915b505050505081525050815260200190600101906104e4565b50505050905090565b60008054906101000a900473ffffffffffffffffffffffffffffffffffffffff1681565b60008054906101000a900473ffffffffffffffffffffffffffffffffffffffff1673ffffffffffffffffffffffffffffffffffffffff163373ffffffffffffffffffffffffffffffffffffffff16146107e7576040517f08c379a00000000000000000000000000000000000000000000000000000000081526004016107de906111b6565b60405180910390fd5b806000806101000a81548173ffffffffffffffffffffffffffffffffffffffff021916908373ffffffffffffffffffffffffffffffffffffffff16021790555050565b6000604051905090565b600080fd5b600080fd5b600080fd5b600080fd5b6000601f19601f8301169050919050565b7f4e487b7100000000000000000000000000000000000000000000000000000000600052604160045260246000fd5b61089182610848565b810181811067ffffffffffffffff821117156108b0576108af610859565b5b80604052505050565b60006108c361082a565b90506108cf8282610888565b919050565b600067ffffffffffffffff8211156108ef576108ee610859565b5b6108f882610848565b9050602081019050919050565b82818337600083830152505050565b6000610927610922846108d4565b6108b9565b90508281526020810184848401111561094357610942610843565b5b61094e848285610905565b509392505050565b600082601f83011261096b5761096a61083e565b5b813561097b848260208601610914565b91505092915050565b60008060006060848603121561099d5761099c610834565b5b600084013567ffffffffffffffff8111156109bb576109ba610839565b5b6109c786828701610956565b935050602084013567ffffffffffffffff8111156109e8576109e7610839565b5b6109f486828701610956565b925050604084013567ffffffffffffffff811115610a1557610a14610839565b5b610a2186828701610956565b9150509250925092565b600081519050919050565b600082825260208201905092915050565b6000819050602082019050919050565b600073ffffffffffffffffffffffffffffffffffffffff82169050919050565b6000610a8282610a57565b9050919050565b610a9281610a77565b82525050565b6000819050919050565b610aab81610a98565b82525050565b600081519050919050565b600082825260208201905092915050565b60005b83811015610aeb578082015181840152602081019050610ad0565b60008484015250505050565b6000610b0282610ab1565b610b0c8185610abc565b9350610b1c818560208601610acd565b610b2581610848565b840191505092915050565b600060a083016000830151610b486000860182610a89565b506020830151610b5b6020860182610aa2565b5060408301518482036040860152610b738282610af7565b91505060608301518482036060860152610b8d8282610af7565b91505060808301518482036080860152610ba78282610af7565b9150508091505092915050565b6000610bc08383610b30565b905092915050565b6000602082019050919050565b6000610be082610a2b565b610bea8185610a36565b935083602082028501610bfc85610a47565b8060005b85811015610c385784840389528151610c198582610bb4565b9450610c2483610bc8565b925060208a01995050600181019050610c00565b50829750879550505050505092915050565b60006020820190508181036000830152610c648184610bd5565b905092915050565b6000610c7782610a57565b9050919050565b610c8781610c6c565b82525050565b6000602082019050610ca26000830184610c7e565b92915050565b610cb181610a77565b8114610cbc57600080fd5b50565b600081359050610cce81610ca8565b92915050565b600060208284031215610cea57610ce9610834565b5b6000610cf884828501610cbf565b91505092915050565b600082825260208201905092915050565b7f63616e27742062757920636f6666656520666f72206672656521000000000000600082015250565b6000610d48601a83610d01565b9150610d5382610d12565b602082019050919050565b60006020820190508181036000830152610d7781610d3b565b9050919050565b7f4e487b7100000000000000000000000000000000000000000000000000000000600052602260045260246000fd5b60006002820490506001821680610dc557607f821691505b602082108103610dd857610dd7610d7e565b5b50919050565b60008190508160005260206000209050919050565b60006020601f8301049050919050565b600082821b905092915050565b600060088302610e407fffffffffffffffffffffffffffffffffffffffffffffffffffffffffffffffff82610e03565b610e4a8683610e03565b95508019841693508086168417925050509392505050565b6000819050919050565b6000610e87610e82610e7d84610a98565b610e62565b610a98565b9050919050565b6000819050919050565b610ea183610e6c565b610eb5610ead82610e8e565b848454610e10565b825550505050565b600090565b610eca610ebd565b610ed5818484610e98565b505050565b5b81811015610ef957610eee600082610ec2565b600181019050610edb565b5050565b601f821115610f3e57610f0f81610dde565b610f1884610df3565b81016020851015610f27578190505b610f3b610f3385610df3565b830182610eda565b50505b505050565b600082821c905092915050565b6000610f6160001984600802610f43565b1980831691505092915050565b6000610f7a8383610f50565b9150826002028217905092915050565b610f9382610ab1565b67ffffffffffffffff811115610fac57610fab610859565b5b610fb68254610dad565b610fc1828285610efd565b600060209050601f831160018114610ff45760008415610fe2578287015190505b610fec8582610f6e565b865550611054565b601f19841661100286610dde565b60005b8281101561102a57848901518255600182019150602085019450602081019050611005565b868310156110475784890151611043601f891682610f50565b8355505b6001600288020188555050505b505050505050565b61106581610a98565b82525050565b600061107682610ab1565b6110808185610d01565b9350611090818560208601610acd565b61109981610848565b840191505092915050565b60006080820190506110b9600083018761105c565b81810360208301526110cb818661106b565b905081810360408301526110df818561106b565b905081810360608301526110f3818461106b565b905095945050505050565b7f6f6e6c7920302e30303320657468657273206172652072657175726965640000600082015250565b6000611134601e83610d01565b915061113f826110fe565b602082019050919050565b6000602082019050818103600083015261116381611127565b9050919050565b7f6f6e6c79206f776e65722063616e2063616c6c2074686973206d6574686f6400600082015250565b60006111a0601f83610d01565b91506111ab8261116a565b602082019050919050565b600060208201905081810360008301526111cf81611193565b905091905056fea264697066735822122014b53abeec2734da2ce9d5d83fa676c04eda59a97586dd1f773cb9db697abf6564736f6c63430008110033",
  "linkReferences": {},
  "deployedLinkReferences": {}
}